:100000000C9463000C948B000C948B000C948B006C
:100010000C948B000C948B000C948B000C948B0034
:100020000C948B000C948B000C948B000C948B0024
:100030000C948B000C948B000C948B000C948B0014
:100040000C94AA010C948B000C948B000C948B00E4
:100050000C948B000C948B000C948B000C948B00F4
:100060000C948B000C948B000000000023002600F1
:10007000290000000000240027002A0000000000E2
:10008000250028002B0004040404040404040202D4
:100090000202020203030303030301020408102007
:1000A0004080010204081020010204081020000012
:1000B0000008000201000003040700000000000027
:1000C00000009403F40311241FBECFEFD8E0DEBF7D
:1000D000CDBF21E0A6E0B1E001C01D92A932B20778
:1000E000E1F711E0A0E0B1E0EEE7FAE002C0059030
:1000F0000D92A630B107D9F710E0C2E6D0E004C0F7
:100100002197FE010E940404C136D107C9F70E945D
:10011000F4010C9432050C9400008F929F92AF92E0
:10012000BF92CF92DF92EF92FF92CF93DF934B017A
:10013000AA24BB24F82DC52ED62EE72EFF24AC2DE5
:10014000E42F20911701222361F0829E40011124A7
:10015000F92D2C9D60011124AD2D249FE001112467
:10016000ED2F30911D01B0911A01E0901801F0902F
:1001700019013B1308C09C01220F331F820F931FEC
:100180008E0D9F1D19C0880F991F880F991F8E0D06
:100190009F1D472F552766277727EC01C30FD11DD9
:1001A000222349F030E0249F7001259FF00C349FFA
:1001B000F00C11244F2D488320911A01EC01C20F3D
:1001C000D11DF88320911B01EC01C20FD11DA88322
:1001D00020911C01DC01A20FB11DEC93DF91CF91A6
:1001E000FF90EF90DF90CF90BF90AF909F908F9057
:1001F0000895833081F028F4813099F08230A1F0A5
:1002000008958730A9F08830B9F08430D1F4809116
:1002100080008F7D03C0809180008F778093800065
:10022000089584B58F7702C084B58F7D84BD08950D
:100230008091B0008F7703C08091B0008F7D809354
:10024000B0000895CF93DF93282F30E0F901E255F5
:10025000FF4F8491F901E656FF4FD491F901EA5717
:10026000FF4FC491CC2391F081110E94F900EC2F33
:10027000F0E0EE0FFF1FE458FF4FA591B4919FB738
:10028000F8948C91D095D823DC939FBFDF91CF91C8
:100290000895CF93DF9390E0FC01E656FF4F249141
:1002A000FC01EA57FF4F8491882361F190E0880FA9
:1002B000991FFC01EE58FF4FC591D491FC01E45801
:1002C000FF4FA591B491611109C09FB7F89488813F
:1002D000209582238883EC912E230BC0623061F439
:1002E0009FB7F8948881322F309583238883EC91CF
:1002F0002E2B2C939FBF06C08FB7F894E8812E2B2E
:1003000028838FBFDF91CF9108953FB7F8948091F4
:100310000B0190910C01A0910D01B0910E0126B539
:10032000A89B05C02F3F19F00196A11DB11D3FBF2D
:10033000BA2FA92F982F8827820F911DA11DB11DBB
:10034000BC01CD0142E0660F771F881F991F4A95B7
:10035000D1F708951F920F920FB60F9211242F9389
:100360003F938F939F93AF93BF9380910701909199
:100370000801A0910901B0910A013091060123E022
:10038000230F2D3720F40196A11DB11D05C026E8CD
:10039000230F0296A11DB11D209306018093070132
:1003A00090930801A0930901B0930A0180910B0179
:1003B00090910C01A0910D01B0910E010196A11D2B
:1003C000B11D80930B0190930C01A0930D01B0938C
:1003D0000E01BF91AF919F918F913F912F910F90FF
:1003E0000FBE0F901F901895CF93DF93CDB7DEB758
:1003F00029970FB6F894DEBF0FBECDBF789484B5B1
:10040000826084BD84B5816084BD85B5826085BD10
:1004100085B5816085BD80916E00816080936E009E
:100420001092810080918100826080938100809190
:100430008100816080938100809180008160809341
:1004400080008091B10084608093B1008091B00001
:1004500081608093B00080917A00846080937A00FC
:1004600080917A00826080937A0080917A00816026
:1004700080937A0080917A00806880937A0010924D
:10048000C10061E083E00E94490183E00E942201F3
:1004900062E084E00E94490180911501909116016B
:1004A00097FD07C061E00E944901809115010E94FB
:1004B000220181E08093100122EB222E20E0322ED7
:1004C00030E0A32E30E0B32E48E0942EF101849169
:1004D000EEE9F0E01491EAE8F0E004910023A1F0E5
:1004E00081110E94F900E02FF0E0EE0FFF1FE859A4
:1004F000FF4FA591B4918C91182391E080E009F40D
:1005000090E0092F182F02C000E010E04091130185
:100510005091140160E070E08091180190911901F0
:100520000E942B05012BE1F000E010E08091110109
:10053000909112010817190738F440E050E860E084
:1005400070E0C8010E948D000F5F1F4F0031110540
:1005500069F78091180190911901892BB9F4B6C0FF
:1005600000E110E080911101909112010817190724
:1005700038F440E050E060E870E0C8010E948D006F
:100580000F5F1F4F0032110569F7E3CF0E9485010D
:1005900000911E0110911F01209120013091210135
:1005A000DC01CB01801B910BA20BB30B8C32914071
:1005B000A105B10558F3F8948091130190911401AD
:1005C0009A838983E0911801F0911901DF01119656
:1005D0008081898790910F01E0912201F0912301A0
:1005E00080912401992309F42DC09081982B98873C
:1005F0009081809589238F838F818C839B825885FE
:100600006F8149853B812C8189819A81508347FD87
:10061000252F3A952083262F39F0441F00C0000073
:100620006083000000C0F2CF38E04D91608300008D
:10063000019761F7F0932301E093220149873B83FF
:100640002C8337C09081982B98879081809589233F
:100650008F838F818E839D8258856F8149853D81EF
:100660002E8189819A81508347FD252F00C000C0CB
:10067000208300C000C000C000C000C06083000034
:10068000262F3A9541F0441F000000C000C000C072
:1006900000C000C0E8CF38E04D9100C0608300C0CA
:1006A000019709F7F0932301E093220149873D83E5
:1006B0002E839A83898378940E94850160931E011A
:1006C00070931F0180932001909321010E94850166
:1006D0006B017C0184EF482E55245394612C712CBE
:1006E0000E948501DC01CB018C199D09AE09BF096F
:1006F000883E9340A105B10598F321E0421A5108C4
:100700006108710888EEC80E83E0D81EE11CF11C58
:10071000411451046104710419F7A114B10409F4DE
:10072000D5CE0E940000D2CE109210011092170177
:1007300010921E0110921F011092200110922101AF
:1007400083E080931D0181E080931A0110921B01C8
:1007500092E090931C0180930F0180E890E09093C9
:100760001401809313010E940A049093190180934D
:100770001801009761F020E8FC0111922A95E9F731
:1007800080E290E0909312018093110108C01092D2
:10079000140110921301109212011092110182E0C3
:1007A00090E09093160180931501809110018823A9
:1007B00039F061E082E00E94490182E00E9422015A
:1007C000E8E8F0E0E491F0E0EE0FFF1FE458FF4F9F
:1007D000859194919093230180932201ECE9F0E0BC
:1007E000E491E093240108958091180190911901FA
:1007F0000E94A204809115019091160197FD03C0FB
:1008000060E00C9449010895EE0FFF1F0590F491EC
:10081000E02D09940F931F93CF93DF9382309105BE
:1008200010F482E090E0E0912701F091280120E0AF
:1008300030E0A0E0B0E0309719F1408151810281B1
:10084000138148175907C8F08417950769F4109762
:1008500031F012960C93129713961C9327C00093B5
:1008600027011093280122C02115310519F04217E4
:10087000530718F49A01BD01EF01DF01F801DBCF46
:1008800021153105F9F0281B390B2430310580F48E
:100890008A819B816115710521F0FB01938382831D
:1008A00004C09093280180932701FE01329644C032
:1008B000FE01E20FF31F8193919322503109398396
:1008C00028833AC02091250130912601232B41F441
:1008D00020910201309103013093260120932501DC
:1008E00020910001309101012115310541F42DB70E
:1008F0003EB74091040150910501241B350BE09156
:100900002501F0912601E217F307A0F42E1B3F0BFF
:100910002817390778F0AC014E5F5F4F2417350771
:1009200048F04E0F5F1F509326014093250181939D
:10093000919302C0E0E0F0E0CF01DF91CF911F91F1
:100940000F910895CF93DF93009709F481C0FC01C4
:10095000329713821282A0912701B091280110973B
:1009600081F420813181820F931F209125013091E4
:1009700026012817390751F5F0932601E093250148
:1009800067C0ED0120E030E0CE17DF0740F44A8178
:100990005B819E0141155105F1F0EA01F5CFD3834A
:1009A000C28340815181840F951FC817D90759F41C
:1009B00088819981840F951F0296918380838A8113
:1009C0009B81938382832115310529F4F0932801BB
:1009D000E09327013DC0E901FB83EA8349915991E6
:1009E000C40FD51FEC17FD0761F480819181840F3E
:1009F000951F0296E90199838883828193819B8365
:100A00008A83E0E0F0E012968D919C911397009715
:100A100019F0FD01DC01F7CF8D919C9111979D019B
:100A20002E5F3F4F820F931F2091250130912601A9
:100A30002817390769F4309729F410922801109289
:100A4000270102C013821282B0932601A0932501D0
:100A5000DF91CF910895DC0101C06D93415050406A
:100A6000E0F7089510E0C2E6D0E004C0FE010E9465
:0E0A700004042196C336D107C9F7F894FFCFCE
:060A7E00000029018000C8
:00000001FF
